:10000000000004202D1600009D1600009F16000021
:10001000A1160000A3160000A516000000000000B5
:10002000000000000000000000000000A716000013
:10003000A916000000000000AB160000AD1600007D
:10004000AF160000AF160000AF160000AF1600009C
:10005000AF160000AF160000AF160000AF1600008C
:100060001D170000AF160000AF160000AF1600000D
:10007000AF160000AF160000AF160000AF1600006C
:10008000AF160000AF160000AF160000AF1600005C
:10009000AF160000AF160000AF160000AF1600004C
:1000A000AF160000AF160000AF160000AF1600003C
:1000B000AF160000AF1600000000000000000000B6
:1000C000AF160000AF160000AF160000AF1600001C
:1000D000AF160000AF160000AF160000AF1600000C
:1000E000AF160000AF160000AF16000000000000C1
:1000F00000000000AF16000000000000AF16000076
:1001000000000000000000000000000000000000EF
:1001100000000000000000000000000000000000DF
:1001200000000000000000000000000000000000CF
:1001300000000000000000000000000000000000BF
:1001400000000000000000000000000000000000AF
:10015000000000000000000000000000000000009F
:10016000000000000000000000000000000000008F
:10017000000000000000000000000000000000007F
:10018000000000000000000000000000000000006F
:10019000000000000000000000000000000000005F
:1001A000000000000000000000000000000000004F
:1001B000000000000000000000000000000000003F
:1001C000000000000000000000000000000000002F
:1001D000000000000000000000000000000000001F
:1001E000000000000000000000000000000000000F
:1001F00000000000000000000000000000000000FF
:10020000000000000000F03F00000000000024405B
:1002100000000000000059400000000000408F4036
:10022000000000000088C34000000000006AF840A1
:100230000000000080842E4100000000D0126341C5
:100240000000000084D797410000000065CDCD413B
:0D02500068656C6C6F20776F726C64210024
:08026000940000000100000001
:100268000348044B834202D0034B03B1184770473D
:100278000800002008000020000000000548064B88
:100288001B1AD90F01EBA301491002D0034B03B18C
:1002980018477047080000200800002000000000F0
:1002A80010B5064C237843B9FFF7DAFF044B13B1B6
:1002B8000448AFF300800123237010BD080000201C
:1002C80000000000D024000008B5054B1BB105490B
:1002D8000548AFF30080BDE80840FFF7CFBF00BF77
:1002E800000000000C000020D0240000A3F5803A94
:1002F800704700BF174B002B08BF134B9D46FFF7F5
:10030800F5FF00218B460F461348144A121A01F0D4
:1003180089FF0E4B002B00D098470D4B002B00D0C7
:1003280098470020002104000D000D48002802D045
:100338000C4802F05BF801F0C3FF2000290001F02F
:10034800B3F901F061FF00BF0000080000000000E1
:10035800000000000000042008000020C001002068
:10036800F5230000012400004FF0805310B4D3F8A7
:100378003021082A20D04A4AD2F8883043F4700342
:10038800C2F88830BFF34F8FBFF36F8F4FF08053A1
:10039800D3F83021082A02D05DF8044B7047D3F80F
:1003A8003431042BF8D94FF010224FF08043D2F8A3
:1003B8000822C3F85825EFE74FF080410020C1F824
:1003C8000C01384AC1F81001C1F83805D3F8040403
:1003D800C2F82005D3F80804C2F82405D3F80C04A1
:1003E800C2F82805D3F81004C2F82C05D3F8140471
:1003F800C2F83005D3F81804C2F83405D3F81C0441
:10040800C2F84005D3F82004C2F84405D3F8240400
:10041800C2F84805D3F82804C2F84C05D3F82C04D0
:10042800C2F85005D3F83004C2F85405D3F83404A0
:10043800C2F86005D3F83804C2F86405D3F83C0460
:10044800C2F86805D3F84004C2F86C05D3F8340143
:10045800D3F84444C2F8704550B14FF08043D3F804
:100468000024D20744BF6FF00102C3F8002482E7DA
:100478000D480E4CC0F88C4602F54052FB20C2F8DD
:100488001805D1F8E42ED3F858420948134664F306
:1004980003034FF40072C1F8E43EC0F84026DCE7DD
:1004A80000ED00E000C0004000500040488103001B
:1004B80000900240704700BF2DE9F04F85B0944688
:1004C800149C019214F0020206460F469846DDE994
:1004D800125BDDF838900F9B9DF84010029204F0F3
:1004E800100000F08980E0B162052FD443BB119B56
:1004F800102B00F05981022B00F07F81302389F8FE
:100508000030012204F00305002900F0CE802D23DD
:1005180009F80230531C002D40F066815B4529D351
:1005280062E1202B00F0B180002900F012812D2219
:1005380009F8032065461A46013335E0620505D4FB
:100548009D4200F0DE805B4500F0DB80119A102AA6
:1005580004F0030500F0F480022A00F0BE80202B8E
:1005680040F02E81002D40F0B580BBF1200F40F205
:10057800B1802023019A9A4614469D1A2246434682
:10058800013439462020B0472B195B45F6D3534632
:100598000BF1FF355A1CED1A5A4588BF0025019A00
:1005A80001321544A3B15A1E09EB02042A440395EB
:1005B8009144A4EB030A1D46A9EB040214F80109AF
:1005C80043463946B047A245F6D12B46039D1D4404
:1005D800029B6BB1019BEC1A5C4509D22A46434643
:1005E800394620200134B0475C4505F10105F5D3B3
:1005F800284605B0BDE8F08FBBF1000F14D014F009
:10060800010E45D0002900F0AD80AB420BF1FF3B55
:100618000FD39B451FD800287FF466AF202B86D1C7
:10062800019D1F222023BFE7AB4238BF04F0010E13
:100638005CD25A1E4A444FF0300C04E001339D420C
:1006480002F801CF01D9202BF8D1BEF1000F67D0F5
:100658005B4580F0EC805A1E4A444FF0300C04E0B1
:1006680001335B4502F801CF63D0202BF8D1002875
:100678007FF464AF04F00305002DD1D1BBF1200F46
:100688003FF677AFCCE7202B09D165461F228BE7D1
:10069800AB42CED300287FF427AF202BEED01A46EA
:1006A80004F0030500297FF432AF63076FD52B23CD
:1006B80009F80230531C002D40F096809B453FF608
:1006C80059AF91E0202B40F093801DB9BBF1200F6A
:1006D8003FF650AF019D1F2266E7202B3FF442AF43
:1006E8009C460133622209F80C2038E70028CAD05A
:1006F80060053FF52BAF002B3FF4F9AEAB427FF41A
:1007080025AFB3F1010C3FF4F2AE119A102A7FD055
:10071800022A00F085801A4604F00305634650E07B
:1007280000287FF40BAF1A4604F00305202AA3D053
:10073800EAE600287FF4D8AE5A4604F00305F5E748
:10074800A206BFD5202BC0D0582209F803200133B8
:1007580005E761073AD42407654650D4002B7FF497
:1007680022AF37E714F00C0F01D00BF1FF3BAB427F
:10077800FFF45FAF5B45FFF46EAF00287FF4B4AEC3
:10078800202B3FF44DAF1A4604F003058DE72007F0
:1007980023D4D5BB934588BF13463FF6EBAE002A5A
:1007A8004CD01346013A1FE0A0061FD4782389F8DD
:1007B8000030302389F80130022204F00305A3E653
:1007C8005A1C4FF0300C09F803C0AFE72B2209F888
:1007D800032065461A460133E6E6202309F802306D
:1007E800531C002D3FF46AAF019DDDE65823DEE778
:1007F800782209F803200133B1E66223D7E72022E3
:1008080009F803201A460133CEE6019D1346C9E6CE
:10081800A506A3F1020206D5582509F802507AE781
:1008280004F003055EE7782509F8025073E700280D
:100838007FF484AE202B3FF44DAF30E7019DD7E61F
:1008480000B9704700F07EBF2DE9F04F9DB0984683
:100858000B1E0893269B0A9318BF8346A44B98F84F
:100868000000924608BF9B46002800F020834FF006
:10087800000909920AE04A46099B089909F1010909
:10088800D84798F80000002800F08E80252808F145
:100898000108F0D10024434613F8010BA0F120020F
:1008A800102A0AD8DFE802F04009093C09090909B9
:1008B80009090938093409093000A0F13002092A68
:1008C80040F2B3802A2800F0D58000220B922E280F
:1008D80000F0C0800026A0F16802122A2DD8DFE8B7
:1008E80012F030012C002A012C001E012C002C00D3
:1008F8002C002C002C002C002C0027002C002C0095
:100908002C002C002C00270044F001049846C2E774
:1009180044F002049846BEE744F004049846BAE757
:1009280044F010049846B6E744F008049846B2E745
:1009380098F8010044F4807401336628984643D837
:10094800452826D9A0F14603202B22D8DFE813F04A
:1009580002012100210021002100210021002100A5
:100968002100210021002100210021002100210077
:100978002100210044022100210021002100210042
:1009880021002100210021004402DD014402210050
:1009980002014A46099B0899D84798F8000009F1CE
:1009A800010900287FF472AFDDF824A04C46CA453F
:1009B80001D80AF1FF39089953464A460020D8471A
:1009C80020461DB0BDE8F08FA0F16903DBB20F2B04
:1009D800DFD801229A4049F241010A4040F0B38130
:1009E8000A2B58D0072BD4D10A9D55F8043B002B6D
:1009F80000F0D48144F0210714A912910C4603E0B9
:100A0800202A00F0D5810B4603F00F01092908467A
:100A18008CBF00F1370130310F2B04F8011B02F1B4
:100A280001024FEA1311EBD8C2E1002200E00133C2
:100A380002EB820200EB42021878A0F1300109298A
:100A48009846A2F13002F2D92E280B9203F1010345
:100A58007FF440AF98F80100A0F13001092944F46F
:100A680080641A4640F27D812A2800F08A819846DF
:100A780001332FE70A9A98F8010052F8045B0A92AA
:100A8800002DB8BF69429846BABF44F002040B91E2
:100A98000B9501331BE7DDF828C05CF8047B387838
:100AA800002E14BF31464FF0FF31002800F01985A1
:100AB80039443B4604E013F8012F002A00F0ED8189
:100AC8009942F8D1A1EB070A650540F1D081B245FA
:100AD80028BFB24614F0020400F068840224CDF85E
:100AE80048A04E44DDE9085A4A46CDF828C008E037
:100AF800BD040000D84717F8010F09F101094A465B
:100B080018B14E4553462946F4D1DDF828C0DDF822
:100B180048A0002C40F02582CDF828C0B1E698F80E
:100B280001006C287FF406AF98F8020044F4407482
:100B380008F1030301E798F8010044F40074013355
:100B4800FBE698F80100682800F0AA8144F08004C8
:100B58000133F2E60A9B073323F00703B3EC027B69
:100B680051EC170B0A9302460B468DED0C7B01F0F6
:100B78003BF9002800F0B281DDE90C0100220023D6
:100B880001F03CF9002840F06381139014F4806F61
:100B980014AB08BF062612931A46A6F1200A33465C
:100BA800302105E0013B534502F8011B00F0EE81BE
:100BB800092BF7D8F61A9A46DDE90C0101F046F937
:100BC800BF4B03EBCA0393ED007B07468DED0E7B0D
:100BD80001F04AF802460B46DDE90C0100F0F6FE8A
:100BE800DDE90E2300F0C4FD02460B46CDE91023D3
:100BF80001F054F9054601F027F802460B46DDE9F5
:100C0800100100F0E3FE02460B46CDE91023AD4B80
:100C1800002201F011F9002800F077812B460133FA
:100C280018461D4601F010F802460B46DDE90E0194
:100C380001F0EEF810B1002301371D469EA3D3E959
:100C48000023DDE90C0101F0F7F8002840F0F181FC
:100C5800BAF1000F00F0F381129BDFF870C2701E2A
:100C680018440EE0ACFB0521C90801EB8102A5EB95
:100C780042023032092D00F8012F40F24D820D4614
:100C88001E46202E06F101030AF1FF3AEAD120267A
:100C9800129B8D48711E194407E001F8017F731CEF
:100CA8001746002A00F0DF811E4680FB0723FA174B
:100CB800C2EBA30202EB8203A7EB4307202E07F146
:100CC8003007EAD104F00302012A40F013840B9B99
:100CD800002B00F0BF82139A002A00F02384013B06
:100CE800202B0B9340F2B682129A0B99731E134471
:100CF800302205E001368E4203F8012F00F0AA8366
:100D0800202EF7D11F23CA46DCE10A9BA20709F16E
:100D1800010603F1040740F1088118780899099B36
:100D28004A46D8470B9B012B40F29D82DDE90845D6
:100D3800994432462B46013621462020D8474E4555
:100D4800F7D10A979DE56F2800F08D8040F2248343
:100D5800782800F05D824FF00A0A24F01004D44687
:100D680042E0002606EB860600EB4600A0F13006BE
:100D780012F8010FA0F13003092BF3D99046531C48
:100D8800A9E50A9B98F8020053F8046B0A9308F146
:100D9800020826EAE67608F101039CE524F010072C
:100DA80014F4806347F021073FF426AE14AB129386
:100DB800129B00930823059310200023CDE90230ED
:100DC8000192DDE908134A46069704965846FFF74C
:100DD80073FB0A95814654E5582879D0622840F07B
:100DE800D7804FF0020AD44614F4806500F02481BD
:100DF80024F00D0313F400700A9A40F0398213F4BA
:100E0800807102F1040440F016835F0640F11282FB
:100E18001278002A40F04D8223F01003002D00F0D4
:100E28004882114614AA129206930B9BCDF80CC067
:100E3800CDE904630191129B009300234A46029373
:100E48005846DDE90813FFF737FB0A94814618E591
:100E5800DDE90C230020002100F0B8FD0123CDE9D5
:100E68000C01139392E64FF0080AD446BCE714F03D
:100E7800020400F043820224DDE90856CDF828C0B8
:100E88004A4633462946D84717F8010F09F10109A0
:100E98000028F5D1DDF828C03BE6A3EB070A13E6E6
:100EA80098F8020044F0C00408F1030345E504463D
:100EB80081467CE5AFF300800000C0FFFFFFDF4103
:100EC800000200000000E03F67666666CDCCCCCC2F
:100ED8004FF0100A44F02004D44685E7099E089D87
:100EE80033464A4629466E20D84709F1020433465C
:100EF80009F1010229466120D8472246334629468E
:100F08006E2009F10309D847BBE4DDE91001C24BA3
:100F1800002200F073FF00287FF490AE002D40F00F
:100F280095812B4601331D4688E60B9B012B40F229
:100F38009481DDE9085A09F1FF361E444C462246E1
:100F48005346013429462020D847B442F7D10B9B99
:100F580099440A9B22461878DDE90813D8470A976E
:100F68008FE44C460B9B53457FF6D6ADDDE908561A
:100F78004B44A3EB0A096746224633460134294607
:100F88002020D8474C45F7D1BC46C5E5202613E6B6
:100F980014F4806300F0448124F011014FF480635D
:100FA80011F400740A9A40F0CE8011F4807002F1B6
:100FB800040A40F0C9814D0600F127810C0640F172
:100FC8008A82B2F9004084EAE477A7EBE477BFB2FB
:100FD800E20F002C00F0F4813B4614ACDFF83CC271
:100FE800129401E0202810D0ACFB0375ED0805EB46
:100FF8008507A3EB47079E463037BEF1090F04F873
:10100800017B00F101002B46ECD80B9B0691CDE942
:101018000463CDE90102129B00930A234A46039315
:101028005846DDE90813FFF747FACDF828A08146AE
:1010380027E44FF0000924E424F00C03DAE63846EC
:1010480000F012FE02460B46DDE90C0100F0BEFC82
:10105800714B002200F0D2FE00287FF419AE013750
:1010680027F0010714E604F00302012A00F0968233
:10107800202B00F090821399002940F0D480650756
:1010880040F11E820DEB03012B20023681F850003F
:10109800002A7FF438AE0B9AB2427FF634AE0C9435
:1010A800DDE9084502EB090AAAEB060A4F460E934A
:1010B8003A462B46013721462020D8475745F7D1D5
:1010C8000C9C0E9B129F1294DDE9084501331F44C6
:1010D8005644524617F8010D0AF1010A2B462146DB
:1010E800D847B245F5D1129CA10740F1BE800B9DAF
:1010F800AAEB0904A542D1467FF6C3ABDDE9086730
:101108004A463B46314620200134D847A54209F1DA
:101118000109F5D8FFF7B5BB202B3FF4B8AD129AFB
:101128009A441644302205E00133202B06F8012F9B
:101138003FF4ADAD5345F7D10DEB03025E1C2E23F2
:1011480082F85030A4E5073222F0070210465268B0
:1011580050F8084B0A9054EA02074FEAD2706ED151
:10116800002B40F0C9811A4614AC25461294AE46AD
:101178002A4C0C914FF0000A0E9002E0BAF1200FB1
:101188002ED0991841F10001A4FB010525F00300B8
:1011980000EB9500091A581A9C46174662F100039D
:1011A8004FF0CC3202FB00F204FB0322A0FB043018
:1011B800024403F001050520A5FB00054018BCF119
:1011C8000A0F4FEA530300F1300077F1000743EAB2
:1011D800C2730EF8010B0AF1010A4FEA5202CDD28E
:1011E8000C990E980B9B0691CDE90463CDE901A0FB
:1011F800129B00930A234A460393DDE908135846D5
:10120800FFF75AF98146FFF73CBB14782746DFE61B
:101218004FF0100AD446E7E50000E03FCDCCCCCC37
:1012280024F01001BCE60DEB03012D20023681F8F5
:1012380050002DE71F064CBF12881268E9E5002A06
:10124800234691DA634262EB42028DE7E9077FF5B4
:10125800F5AC66E6CA461F2334E70A9B4A46187867
:10126800DDE90813D847B1466BE5D146FFF709BB5E
:10127800073222F00702546852F8081B0A9251EA12
:101288000402084640F0A28023F01003002D00F06D
:101298009D8014AA0027129206930B9BCDF80CC0D0
:1012A800CDE90463129B0093002301974A460293F9
:1012B800A3E713F0200F14BF41206120A0F10A0E0C
:1012C80014A81290074603E020293FF4ADAD2A4642
:1012D800B2FBFCF50CFB152A5FFA8AF0BAF1090F8C
:1012E80000F1300A8ABF70445FFA8AF0C0B26245E2
:1012F80007F8010B01F10101E6D295E50B9B534577
:1013080040F240810B9B1296DDE908564B440A9740
:10131800A3EB0A0A67464A46334609F101092946FA
:101328002020D847D145F6D1BC460A9F0B9B387878
:10133800129E03F1010A00283FF4EEAB002C3FF4A3
:101348009BAD0024FFF7CBBB1068C20F002800F04C
:10135800BC8080EAE073A3EBE07314A8DFF894C2C2
:10136800129001E0202C10D0ACFB0375ED0805EBC2
:101378008507A3EB47079E463037BEF1090F00F8F3
:10138800017B04F101042B46ECD80B9B0691CDE9B7
:101398000463CDE901423EE6692824F0100140F0DB
:1013A800B08014F480633FF4FBADF5E50B9B534527
:1013B80098BF0AF1010A7FF692AB4FF48064A1E767
:1013C800002B3FF40AAE14AB12931EE613F0200F65
:1013D80014BF41226122A2F10A0114AA0E96CDF887
:1013E8004090129200270C93CDF84CC01646054643
:1013F800894603E0202F17D005460C462146524661
:101408000023284600F06AFDD2B2092A02F130030F
:1014180088BF02EB09035545DBB274F1000406F8F6
:10142800013B07F10107E5D20C9B0E9EDDF84090C9
:10143800DDF84CC030E71268E2B923F01003CDB1F3
:1014480014AA129206930B9BCDF80CC0CDE9046345
:101458000190F0E4202E3FF455AC139B002B79D07B
:1014680001362D220B990DEB0103CA4683F8502053
:101478000B4627E613F0200F14BF41216121A1F18B
:101488000A0E14A912910F4602E02028DAD02A4643
:10149800B2FBFCF50CFB152A5FFA8AF1BAF1090FC9
:1014A80001F1300A8ABF71445FFA8AF1C9B2624514
:1014B80007F8011B00F10100E7D2C3E70B9B0122EB
:1014C800200727D41E46013BE2E5002B3FF445AF39
:1014D80014AB129359E7146884EAE477A7EBE4772E
:1014E80076E514F4806A3AD014F0020A4DD08246A8
:1014F8004C4637E51F23CBE514AB4FF0000A129397
:1015080070E64FF00A0A0C46D4466DE4220736D539
:10151800334601220DEB0301202081F850005E1CA8
:10152800B6E51E4614F00C0F0B9B22D0013B9E42E1
:101538000B93FFF4D9AB202E3FF48CAE6307E5D5AF
:1015480006F170036B442B2203F8202CCA4633465D
:101558000136B7E56307B1D501362B2282E714F0CF
:1015680002047FF4FEAC0B9B002B7FF4CBAEFFF79D
:10157800D3BA9E42FFF4B8AB202E3FF46BAE731E75
:10158800CA469FE50AF1010A76E40B9B002B7FF41B
:1015980014AFFFF7C1BA1E461F2379E50B99A1B115
:1015A800139A002ABDD04A1E9A420B9288BF1E4643
:1015B8003FF69AAB202B19D003F170026A442D2113
:1015C800023602F8201CCA467CE5202B0ED013995F
:1015D8000029F1D167077FF573AF03F170026A4400
:1015E8002B21023602F8201CCA466BE51E46CA4665
:1015F8001F2367E5CDCCCCCC0FB410B584B006ACB6
:101608004FF0FF3254F8043B009402A904480394B5
:10161800FFF71AF904B0BDE8104004B0704700BFE6
:10162800490800000F49104A104B00F010F8104903
:10163800104A114B00F00BF81049114A114B00F0F9
:1016480006F81149114A124B00F001F806E0521A47
:1016580003DD043A98588850FBDC7047FEF784FE97
:10166800FEF748FE00000020080000201C250000AE
:1016780008000020080000202425000008000020A1
:101688000800002024250000080000200800002091
:1016980024250000FEE7FEE7FEE7FEE7FEE7FEE79B
:1016A800FEE7FEE7FEE7FEE7164B002108204FF4B1
:1016B800803200B5C3F80415C3F80815C3F810053F
:1016C800C3F80423104A4FF4807010600F4A104C7E
:1016D80001204FF2244ED8604FF0A04CC3F840E5EB
:1016E8004FF0060EC2F80CE5C2F82445C2F86C1596
:1016F80003214022CCF81817CCF80825186030BF11
:10170800FDE700BF0080004000E100E0002000404D
:1017180000E0D701094BD3F84021D20700D4704725
:101728000022C3F84021D3F84025054902F5744248
:1017380024320868C3F84025FFF75EBF00800040E8
:1017480000000020094A04210123C2F80015C2F84C
:101758001C059360D2F81C31002BFBD0002301211B
:10176800C2F81C31D160C2F8003570470020004033
:1017780070B54FF0FF0C4CF4E06C1CEA11541DBF1F
:101788001CEA135594EA0C0F95EA0C0F00F0DEF8EA
:101798002C4481EA030621EA4C5123EA4C5350EACF
:1017A800013518BF52EA033541F4801143F4801320
:1017B80038D0A0FB02CE4FF00005E1FB02E506F0B1
:1017C8000042E0FB03E54FF00006E1FB03569CF006
:1017D800000F18BF4EF0010EA4F1FF04B6F5007F0C
:1017E80064F5407404D25FEA4E0E6D4146EB06067E
:1017F80042EAC62141EA55514FEAC52040EA5E5007
:101808004FEACE2EB4F1FD0C88BFBCF5E06F1ED8B0
:10181800BEF1004F08BF5FEA500E50F1000041EBE7
:10182800045170BD06F0004646EA010140EA020094
:1018380081EA0301B4EB5C04C2BFD4EB0C0541EAB6
:10184800045170BD41F480114FF0000E013C00F3CB
:10185800AB8014F1360FDEBF002001F0004170BDEF
:10186800C4F10004203C35DA0C341BDC04F1140408
:10187800C4F1200500FA05F320FA04F001FA05F294
:1018880040EA020001F0004221F0004110EBD37061
:1018980021FA04F642EB06015EEA430E08BF20EA8D
:1018A800D37070BDC4F10C04C4F1200500FA04F330
:1018B80020FA05F001FA04F240EA020001F00041C2
:1018C80010EBD37041F100015EEA430E08BF20EA35
:1018D800D37070BDC4F1200500FA05F24EEA020E7D
:1018E80020FA04F301FA05F243EA020321FA04F0AC
:1018F80001F0004121FA04F220EA020000EBD37063
:101908005EEA430E08BF20EAD37070BD94F0000F62
:101918000FD101F00046400041EB010111F4801F96
:1019280008BF013CF7D041EA060195F0000F18BF47
:10193800704703F00046520043EB030313F4801F83
:1019480008BF013DF7D043EA0603704794EA0C0F3D
:101958000CEA135518BF95EA0C0F0CD050EA410653
:1019680018BF52EA4306D1D181EA030101F00041D0
:101978004FF0000070BD50EA410606BF10461946F8
:1019880052EA430619D094EA0C0F02D150EA013604
:1019980013D195EA0C0F05D152EA03361CBF104645
:1019A80019460AD181EA030101F0004141F0FE41E4
:1019B80041F470014FF0000070BD41F0FE4141F468
:1019C800780170BD81F0004102E000BF83F0004360
:1019D80030B54FEA41044FEA430594EA050F08BFC2
:1019E80090EA020F1FBF54EA000C55EA020C7FEA86
:1019F800645C7FEA655C00F0E2804FEA5454D4EB03
:101A08005555B8BF6D420CDD2C4480EA020281EACC
:101A1800030382EA000083EA010180EA020281EA04
:101A28000303362D88BF30BD11F0004F4FEA013156
:101A38004FF4801C4CEA113102D0404261EB410165
:101A480013F0004F4FEA03334CEA133302D05242EB
:101A580063EB430394EA050F00F0A780A4F10104A7
:101A6800D5F1200E0DDB02FA0EFC22FA05F28018E1
:101A780041F1000103FA0EF2801843FA05F35941C7
:101A88000EE0A5F120050EF1200E012A03FA0EFC46
:101A980028BF4CF0020C43FA05F3C01851EBE37170
:101AA80001F0004507D54FF0000EDCF1000C7EEB8D
:101AB80000006EEB0101B1F5801F1BD3B1F5001FCB
:101AC8000CD349085FEA30004FEA3C0C04F10104EA
:101AD8004FEA445212F5800F80F09A80BCF1004F13
:101AE80008BF5FEA500C50F1000041EB045141EA95
:101AF800050130BD5FEA4C0C404141EB0101013C5E
:101B080028BFB1F5801FE9D291F0000F04BF01464C
:101B18000020B1FA81F308BF2033A3F10B03B3F11E
:101B280020020CDA0C3208DD02F1140CC2F10C02AE
:101B380001FA0CF021FA02F10CE002F11402D8BF0C
:101B4800C2F1200C01FA02F120FA0CFCDCBF41EAD8
:101B58000C019040E41AA2BF01EB0451294330BDA7
:101B68006FEA04041F3C1CDA0C340EDC04F1140484
:101B7800C4F1200220FA04F001FA02F340EA03005B
:101B880021FA04F345EA030130BDC4F10C04C4F1A1
:101B9800200220FA02F001FA04F340EA0300294681
:101BA80030BD21FA04F0294630BD94F0000F83F4CB
:101BB800801306BF81F480110134013D4EE77FEAAE
:101BC800645C18BF7FEA655C29D094EA050F08BFFA
:101BD80090EA020F05D054EA000C04BF19461046DB
:101BE80030BD91EA030F1EBF0021002030BD5FEA1F
:101BF800545C05D14000494128BF41F0004130BD47
:101C080014F580043CBF01F5801130BD01F000459A
:101C180045F0FE4141F470014FF0000030BD7FEA0D
:101C2800645C1ABF194610467FEA655C1CBF0B4608
:101C3800024650EA013406BF52EA033591EA030F1F
:101C480041F4002130BD00BF90F0000F04BF002117
:101C5800704730B54FF4806404F132044FF000054A
:101C68004FF0000150E700BF90F0000F04BF0021C3
:101C7800704730B54FF4806404F1320410F0004529
:101C880048BF40424FF000013EE700BF42004FEA24
:101C9800E2014FEA31014FEA02701FBF12F07F43A1
:101CA80093F07F4F81F06051704732F07F4208BF58
:101CB800704793F07F4F04BF41F40021704730B55F
:101CC8004FF4607401F0004521F000411CE700BFAB
:101CD80050EA010208BF704730B54FF000050AE02E
:101CE80050EA010208BF704730B511F0004502D52F
:101CF800404261EB41014FF4806404F132045FEA31
:101D0800915C3FF4D8AE4FF003025FEADC0C18BFD9
:101D180003325FEADC0C18BF033202EBDC02C2F1CB
:101D2800200300FA03FC20FA02F001FA03FE40EA5D
:101D38000E0021FA02F11444BDE600BF4FF0FF3C4B
:101D480006E000BF4FF0010C02E000BF4FF0010CAD
:101D58004DF804CD4FEA410C7FEA6C5C4FEA430C26
:101D680018BF7FEA6C5C1BD001B050EA410C0CBF75
:101D780052EA430C91EA030F02BF90EA020F0020D7
:101D8800704710F1000F91EA030F58BF994208BF3E
:101D980090422CBFD8176FEAE37040F001007047FB
:101DA8004FEA410C7FEA6C5C02D150EA013C07D152
:101DB8004FEA430C7FEA6C5CD6D152EA033CD3D09D
:101DC8005DF8040B704700BF8446104662468C4697
:101DD8001946634600E000BF01B5FFF7B7FF0028CA
:101DE80048BF10F1000F01BD4DF808EDFFF7F4FFF3
:101DF8000CBF012000205DF808FB00BF4DF808ED7E
:101E0800FFF7EAFF34BF012000205DF808FB00BFA0
:101E18004DF808EDFFF7E0FF94BF012000205DF8C2
:101E280008FB00BF4DF808EDFFF7CEFF94BF012077
:101E380000205DF808FB00BF4DF808EDFFF7C4FF70
:101E480034BF012000205DF808FB00BF4FEA4102C3
:101E580012F5001215D211D56FF47873B3EB6252F4
:101E680012D94FEAC12343F0004343EA505311F01B
:101E7800004F23FA02F018BF404270474FF00000AD
:101E8800704750EA013005D111F0004008BF6FF0EB
:101E9800004070474FF00000704700BF4A0011D261
:101EA80012F5001211D20DD56FF47873B3EB6252AC
:101EB8000ED44FEAC12343F0004343EA505323FAB8
:101EC80002F070474FF00000704750EA013002D12D
:101ED8004FF0FF3070474FF00000704753B94AB9D0
:101EE800002908BF00281CBF4FF0FF314FF0FF301A
:101EF80000F088B9ADF1080C6DE904CE00F006F8E1
:101F0800DDF804E0DDE9022304B070472DE9F0476D
:101F1800089D0F4604468C46002B48D18A42164637
:101F280061D9B2FA82F34BB1C3F1200201FA03FC82
:101F380020FA02F29E4042EA0C0C9C404FEA164EF0
:101F4800B7B2BCFBFEF1220C0EFB11CC42EA0C42EC
:101F580001FB07F0904209D9B21801F1FF3C80F06B
:101F6800EE80904240F2EB8002393244121AA4B259
:101F7800B2FBFEF00EFB102244EA024400FB07F716
:101F8800A74209D9341900F1FF3280F0DA80A7425C
:101F980040F2D7803444023840EA0140E41B002173
:101FA8001DB1DC400023C5E90043BDE8F0878B4242
:101FB80006D90DB1C5E9000100210846BDE8F08742
:101FC800B3FA83F1002948D1BB4202D3824200F21E
:101FD8000781841A67EB030201209446002DE4D0A0
:101FE800C5E9004CE1E7002A00F09280B2FA82F3DA
:101FF800002B40F0A8808A1A4FEA164E1FFA86FC7A
:102008000121200CB2FBFEF70EFB172240EA024228
:102018000CFB07F0904207D9B21807F1FF3802D23B
:10202800904200F2E2804746121AA4B2B2FBFEF0D8
:102038000EFB102244EA02440CFB00FCA44507D91D
:10204800341900F1FF3202D2A44500F2CB801046C9
:10205800A4EB0C0440EA0740A2E7C1F120068B403C
:1020680022FA06FC4CEA030C07FA01F420FA06F3FC
:10207800F7404FEA1C49234300FA01F81FFA8CFE87
:10208800B7FBF9F01C0C09FB107744EA074400FB86
:102098000EF7A74202FA01F20AD91CEB040400F178
:1020A800FF3A80F09B80A74240F29880023864444F
:1020B800E41B9FB2B4FBF9F309FB134447EA044459
:1020C80003FB0EFEA64509D91CEB040403F1FF37F8
:1020D80080F08280A6457FD9023B644443EA0040F1
:1020E800A4EB0E04A0FB02E7BC427346B94663D3D7
:1020F80060D05DB1B8EB030264EB090404FA06F69C
:1021080022FA01F31E43CC40C5E9006400214CE7E4
:102118006208480842EAC1710B0C43EA00438AB2DC
:1021280042EA0342B3FBF6F1E407B4463746B64643
:102138001F23B0FBF6F0D21B41EA004161E761467C
:1021480014E7104628E7C3F1200120FA01F29E4067
:1021580027FA01F19F403A434FEA164E1FFA86FCD0
:10216800B1FBFEF70EFB1710110C41EA004107FB0B
:102178000CF8884504FA03F43AD9711807F1FF30CE
:1021880001D288451FD8A1EB0801B1FBFEF808FB76
:102198000CF70EFB181192B242EA0142BA422FD252
:1021A800B21808F1FF31C6D2BA42C4D2A8F102016E
:1021B8003244C0E7F0459CD2BEEB020367EB0C0744
:1021C8000138B94695E7A6EB08084144B81EB1FBAB
:1021D800FEF808FB0CF7DCE73B467FE7504667E76D
:1021E8000846FBE63444023832E7023F32441BE734
:1021F800A1EB08013846B1FBFEF808FB0CF7C8E76D
:10220800414698E7704700BF08B50021044600F032
:102218008DF8034B1B6803B19847204600F040F93E
:1022280024000020830730B546D08418844604E093
:1022380003F8011B9D0704D09C46A4456346F7D1CB
:1022480030BD013A0244A2EB0C02032A29D9CCB2D0
:1022580004EB04240F2A04EB04442FD9A2F1100C38
:102268002CF00F0C03F11005AC44C3E90044C3E99A
:10227800024410336345F8D112F00C0F02F00F0E30
:1022880018D02EF0030C9C44AEF104051A4642F80F
:10229800044B6245FBD125F0030404330EF003021E
:1022A8002344002ACCD0C9B21A4403F8011B934234
:1022B800FBD130BD7246F4E70346C6E79646E0E731
:1022C80070B50F4B0F4DAB42A3EB050607D0B61008
:1022D800002455F8043B01349847A642F9D800F089
:1022E800E1F8094D094B5E1BAB424FEAA60606D042
:1022F800002455F8043B01349847A642F9D870BD2C
:10230800B8240000B8240000B8240000C02400004D
:10231800704700BF704700BF024B13B1024800F07E
:1023280065B8704700000000012400002DE9F04F57
:102338002C4B2D4F83B082461868CDF804A08B46ED
:10234800FFF7E6FF3E68AEB14FF000094FF0010815
:102358007468651E0ED4013406EB8404BBF1000FCB
:102368000FD0D4F800315B450BD0013D6A1CA4F1B5
:102378000404F6D11B4B186803B0BDE8F04FFFF713
:10238800C9BF73682268013BAB420CBF7560C4F8D3
:10239800009072B1D6F88811D6F804A008FA05F3AF
:1023A8000B420CD1904773683A68534513D1B24237
:1023B80011D1013D6B1CA4F10404CFD1DAE7D6F8A2
:1023C8008C01D4F88010034209D1019890477368B2
:1023D8003A685345EBD0002ACCD01646B8E70846F1
:1023E8009047E0E7040000202C000020002301466D
:1023F8001A46184600F014B838B5074D074C2C1B80
:10240800A41005D0013C55F8043D9847002CF9D19B
:10241800BDE8384000F050B8D0240000CC240000BB
:102428002DE9F8431B4D0646286898460F46914605
:10243800FFF76EFF184B1C681CB3286865681F2DD2
:1024480022DC4EB96B1C0235636044F82570FFF737
:1024580061FF0020BDE8F88304EB85010123C1F882
:102468008890D4F88821AB401A43022EC4F88821FA
:10247800C1F80881E6D1D4F88C211A43C4F88C211C
:10248800E0E7064C1C60D8E7FFF744FF4FF0FF3049
:10249800E0E700BF040000202C00002030000020EE
:1024A800FEE700BFF8B500BFF8BC08BC9E46704701
:1024B80021230000D1020000F8B500BFF8BC08BC19
:0C24C8009E467047A902000000000000C2
:1024D4001C2500000000002002000000242500004C
:1024E400080000200000000024250000080000204F
:1024F4000000000024250000080000200000000067
:10250400080000206E000000C00100200000000050
:08251400C001002000000000DE
:08251C0050020000280000201D
:040000030000162DB6
:00000001FF
