:10000000000004205D040000CD040000CF040000C7
:10001000D1040000D3040000D5040000000000005B
:10002000000000000000000000000000D7040000F5
:10003000D904000000000000DB040000DD04000023
:10004000DF040000DF040000DF040000DF04000024
:10005000DF040000DF04000001050000DF040000F1
:10006000E1040000DF040000DF040000DF04000002
:10007000DF040000DF040000DF040000DF040000F4
:10008000DF040000DF040000DF040000DF040000E4
:10009000DF040000DF040000DF040000DF040000D4
:1000A000DF040000DF040000DF040000DF040000C4
:1000B000DF040000DF04000000000000000000007A
:1000C000DF040000DF040000DF040000DF040000A4
:1000D000DF040000DF040000DF040000DF04000094
:1000E000DF040000DF040000DF0400000000000067
:1000F00000000000DF04000000000000DF0400003A
:1001000000000000000000000000000000000000EF
:1001100000000000000000000000000000000000DF
:1001200000000000000000000000000000000000CF
:1001300000000000000000000000000000000000BF
:1001400000000000000000000000000000000000AF
:10015000000000000000000000000000000000009F
:10016000000000000000000000000000000000008F
:10017000000000000000000000000000000000007F
:10018000000000000000000000000000000000006F
:10019000000000000000000000000000000000005F
:1001A000000000000000000000000000000000004F
:1001B000000000000000000000000000000000003F
:1001C000000000000000000000000000000000002F
:1001D000000000000000000000000000000000001F
:1001E000000000000000000000000000000000000F
:1001F00000000000000000000000000000000000FF
:08020000940000000100000061
:100208000348044B834202D0034B03B1184770479D
:100218000800002008000020000000000548064BE8
:100228001B1AD90F01EBA301491002D0034B03B1EC
:100238001847704708000020080000200000000050
:1002480010B5064C237843B9FFF7DAFF044B13B116
:100258000448AFF300800123237010BD080000207C
:1002680000000000B80A000008B5054B1BB105499D
:100278000548AFF30080BDE80840FFF7CFBF00BFD7
:10028800000000000C000020B80A0000A3F5803A26
:10029800704700BF174B002B08BF134B9D46FFF755
:1002A800F5FF00218B460F461348144A121A00F036
:1002B800ADFA0E4B002B00D098470D4B002B00D009
:1002C80098470020002104000D000D48002802D0A6
:1002D8000C4800F07FFB00F0E7FA2000290000F04E
:1002E800E1F900F085FA00BF0000080000000000F6
:1002F800000000000000042008000020C8010020C1
:10030800DD090000E90900004FF0805310B4D3F86C
:100318003021082A20D04A4AD2F8883043F47003A2
:10032800C2F88830BFF34F8FBFF36F8F4FF0805301
:10033800D3F83021082A02D05DF8044B7047D3F86F
:100348003431042BF8D94FF010224FF08043D2F803
:100358000822C3F85825EFE74FF080410020C1F884
:100368000C01384AC1F81001C1F83805D3F8040463
:10037800C2F82005D3F80804C2F82405D3F80C0401
:10038800C2F82805D3F81004C2F82C05D3F81404D1
:10039800C2F83005D3F81804C2F83405D3F81C04A1
:1003A800C2F84005D3F82004C2F84405D3F8240461
:1003B800C2F84805D3F82804C2F84C05D3F82C0431
:1003C800C2F85005D3F83004C2F85405D3F8340401
:1003D800C2F86005D3F83804C2F86405D3F83C04C1
:1003E800C2F86805D3F84004C2F86C05D3F83401A4
:1003F800D3F84444C2F8704550B14FF08043D3F865
:100408000024D20744BF6FF00102C3F8002482E73A
:100418000D480E4CC0F88C4602F54052FB20C2F83D
:100428001805D1F8E42ED3F858420948134664F366
:1004380003034FF40072C1F8E43EC0F84026DCE73D
:1004480000ED00E000C0004000500040488103007B
:10045800009002400F49104A104B00F010F8104964
:10046800104A114B00F00BF81049114A114B00F0DB
:1004780006F81149114A124B00F001F806E0521A29
:1004880003DD043A98588850FBDC7047FFF73CFFBF
:10049800FFF700FF0000002008000020040B000008
:1004A80008000020080000200C0B000008000020B5
:1004B800080000200C0B00000800002008000020A5
:1004C8000C0B0000FEE7FEE7FEE7FEE7FEE7FEE7AF
:1004D800FEE7FEE7FEE7FEE7054BD3F840212AB129
:1004E800044A00200121C3F840011170704700BF81
:1004F800008000402A0000200A4BD3F800213AB1BE
:10050800094A00210120C3F800115170107070478A
:10051800D3F8041129B10449C3F8042101200A7051
:1005280048707047006000402800002010B42D4A31
:100538001378052B10D8DFE803F01D2C374603127B
:100548004FF0A0434FF4C0344FF420400021C3F8CB
:100558000845C3F80C0511705DF8044B70474FF05F
:10056800A0414FF4F0300123C1F8080513705DF87D
:10057800044B70474FF0A0434FF490344FF4F030E1
:100588000521C3F80845C3F80C0511705DF8044B44
:1005980070474FF0A0414FF4C0400223C1F80C054A
:1005A80013705DF8044B70474FF0A0434FF4C044FC
:1005B8004FF4A0300321C3F80845C3F80C051170A7
:1005C8005DF8044B70474FF0A0434FF4A0344FF44C
:1005D800C0300421C3F80845C3F80C0511705DF854
:1005E800044B70470000002010B42D4A1378052BE7
:1005F80010D8DFE803F01D2C374603124FF0A04354
:100608004FF480344FF400400021C3F80845C3F884
:100618000C0511705DF8044B70474FF0A0414FF482
:10062800F0300123C1F8080513705DF8044B7047DA
:100638004FF0A0434FF400444FF4F0300521C3F8C5
:100648000845C3F80C0511705DF8044B70474FF06E
:10065800A0414FF400500223C1F80C0513705DF857
:10066800044B70474FF0A0434FF400544FF48040C0
:100678000321C3F80845C3F80C0511705DF8044B55
:1006880070474FF0A0434FF480444FF4803004216A
:10069800C3F80845C3F80C0511705DF8044B7047A2
:1006A800000000202DE9F0474FF0A04703220C215D
:1006B8004FF400504FF48044C7F82C17434BC7F849
:1006C8003017C7F83427C7F83827C7F83C27C7F8C2
:1006D8004027C7F80805C7F808454FF40044C7F88D
:1006E80008453B483B494FF48034C7F80845C3F8F0
:1006F8001005C3F8141502200121C3F80413C3F828
:100708000403354840230360344B4FF00009C3F815
:100718000495C3F808250822C3F81025C3F8044334
:100728004FF4807202604FF224422D4C2D4E2E4D14
:10073800DFF8B8A0C3F800124FF4F038C3F840252A
:10074800196030BF2378002BFBD084F800902A78FA
:10075800337892B96A7802F0FF0172B91BB10523A8
:100768008AF8003031709AF8003043B3052BE8D18D
:10077800C7F808858AF80090E3E72A785AB96A78B2
:100788009AB1022B04D0052202238AF80020337084
:10079800FFF72AFFD5E7012B04D0052201238AF8A9
:1007A80000203370FFF7C2FECBE7012BFAD0022BF3
:1007B800EED0002BC5D19AF80030002BD6D10523F6
:1007C800C7F80C858AF80030BBE700BF006000401E
:1007D800010B0200010C020000E100E00080004073
:1007E8002A0000202400002028000020000000200B
:1007F80008B50021044600F08DF8034B1B6803B1CF
:100808009847204600F040F92C000020830730B5B7
:1008180046D08418844604E003F8011B9D0704D0E1
:100828009C46A4456346F7D130BD013A0244A2EB89
:100838000C02032A29D9CCB204EB04240F2A04EBB6
:1008480004442FD9A2F1100C2CF00F0C03F1100561
:10085800AC44C3E90044C3E9024410336345F8D10A
:1008680012F00C0F02F00F0E18D02EF0030C9C445F
:10087800AEF104051A4642F8044B6245FBD125F057
:10088800030404330EF003022344002ACCD0C9B277
:100898001A4403F8011B9342FBD130BD7246F4E7BA
:1008A8000346C6E79646E0E770B50F4B0F4DAB42DF
:1008B800A3EB050607D0B610002455F8043B013415
:1008C8009847A642F9D800F0E1F8094D094B5E1B9C
:1008D800AB424FEAA60606D0002455F8043B013483
:1008E8009847A642F9D870BDA00A0000A00A0000E7
:1008F800A00A0000A80A0000704700BF704700BFA8
:10090800024B13B1024800F065B8704700000000C0
:10091800E90900002DE9F04F2C4B2D4F83B082469A
:100928001868CDF804A08B46FFF7E6FF3E68AEB125
:100938004FF000094FF001087468651E0ED40134A9
:1009480006EB8404BBF1000F0FD0D4F800315B45EF
:100958000BD0013D6A1CA4F10404F6D11B4B1868A6
:1009680003B0BDE8F04FFFF7C9BF73682268013BC9
:10097800AB420CBF7560C4F8009072B1D6F888110C
:10098800D6F804A008FA05F30B420CD19047736817
:100998003A68534513D1B24211D1013D6B1CA4F101
:1009A8000404CFD1DAE7D6F88C01D4F880100342DA
:1009B80009D10198904773683A685345EBD0002AEB
:1009C800CCD01646B8E708469047E0E70400002078
:1009D80034000020002301461A46184600F014B8D7
:1009E80038B5074D074C2C1BA41005D0013C55F811
:1009F800043D9847002CF9D1BDE8384000F050B8C4
:100A0800B80A0000B40A00002DE9F8431B4D064659
:100A1800286898460F469146FFF76EFF184B1C68EA
:100A28001CB3286865681F2D22DC4EB96B1C023583
:100A3800636044F82570FFF761FF0020BDE8F88384
:100A480004EB85010123C1F88890D4F88821AB40D4
:100A58001A43022EC4F88821C1F80881E6D1D4F8D7
:100A68008C211A43C4F88C21E0E7064C1C60D8E7B7
:100A7800FFF744FF4FF0FF30E0E700BF040000201D
:100A88003400002038000020FEE700BFF8B500BFA2
:100A9800F8BC08BC9E4670470909000071020000B6
:100AA800F8B500BFF8BC08BC9E4670474902000074
:040AB800000000003A
:100ABC00040B000000000020020000000C0B0000E2
:100ACC0008000020000000000C0B000008000020B3
:100ADC00000000000C0B00000800002000000000CB
:100AEC000800002070000000C80100200000000079
:080AFC00C80100200000000009
:080B0400050000003000002094
:040000030000045D98
:00000001FF
