:100000000000042069160000D9160000DB1600006D
:10001000DD160000DF160000E11600000000000001
:10002000000000000000000000000000E3160000D7
:10003000E516000000000000E7160000E9160000C9
:10004000EB160000EB160000EB160000EB160000AC
:10005000EB160000EB160000EB160000EB1600009C
:10006000EB16000061180000EB160000EB16000014
:10007000EB160000EB160000EB160000EB1600007C
:10008000EB160000EB160000EB160000EB1600006C
:10009000EB160000EB160000EB160000EB1600005C
:1000A000EB160000EB160000EB160000EB1600004C
:1000B000EB160000EB16000000000000000000003E
:1000C000EB160000EB160000EB160000EB1600002C
:1000D000EB160000EB160000EB160000EB1600001C
:1000E000EB160000EB160000EB160000000000000D
:1000F00000000000EB16000000000000EB160000FE
:1001000000000000000000000000000000000000EF
:1001100000000000000000000000000000000000DF
:1001200000000000000000000000000000000000CF
:1001300000000000000000000000000000000000BF
:1001400000000000000000000000000000000000AF
:10015000000000000000000000000000000000009F
:10016000000000000000000000000000000000008F
:10017000000000000000000000000000000000007F
:10018000000000000000000000000000000000006F
:10019000000000000000000000000000000000005F
:1001A000000000000000000000000000000000004F
:1001B000000000000000000000000000000000003F
:1001C000000000000000000000000000000000002F
:1001D000000000000000000000000000000000001F
:1001E000000000000000000000000000000000000F
:1001F00000000000000000000000000000000000FF
:10020000000000000000F03F00000000000024405B
:1002100000000000000059400000000000408F4036
:10022000000000000088C34000000000006AF840A1
:100230000000000080842E4100000000D0126341C5
:100240000000000084D797410000000065CDCD413B
:10025000583A202535642C20593A202535642C2025
:0E0260005A3A20253564207C2025730D0A00B3
:080270009400000001000000F1
:100278000348044B834202D0034B03B1184770472D
:100288000400002004000020000000000548064B80
:100298001B1AD90F01EBA301491002D0034B03B17C
:1002A80018477047040000200400002000000000E8
:1002B80010B5064C237843B9FFF7DAFF044B13B1A6
:1002C8000448AFF300800123237010BD0400002010
:1002D800000000000027000008B5054B1BB10549C8
:1002E8000548AFF30080BDE80840FFF7CFBF00BF67
:1002F800000000000800002000270000A3F5803A55
:10030800704700BF174B002B08BF134B9D46FFF7E4
:10031800F5FF00218B460F461348144A121A02F0C3
:1003280099F80E4B002B00D098470D4B002B00D0AE
:1003380098470020002104000D000D48002802D035
:100348000C4802F06BF902F0D3F82000290001F004
:10035800C9F902F071F800BF0000080000000000B1
:100368000000000000000420040000203C020020DF
:1003780025260000312600004FF0805310B4D3F832
:100388003021082A20D04A4AD2F8883043F4700332
:10039800C2F88830BFF34F8FBFF36F8F4FF0805391
:1003A800D3F83021082A02D05DF8044B7047D3F8FF
:1003B8003431042BF8D94FF010224FF08043D2F893
:1003C8000822C3F85825EFE74FF080410020C1F814
:1003D8000C01384AC1F81001C1F83805D3F80404F3
:1003E800C2F82005D3F80804C2F82405D3F80C0491
:1003F800C2F82805D3F81004C2F82C05D3F8140461
:10040800C2F83005D3F81804C2F83405D3F81C0430
:10041800C2F84005D3F82004C2F84405D3F82404F0
:10042800C2F84805D3F82804C2F84C05D3F82C04C0
:10043800C2F85005D3F83004C2F85405D3F8340490
:10044800C2F86005D3F83804C2F86405D3F83C0450
:10045800C2F86805D3F84004C2F86C05D3F8340133
:10046800D3F84444C2F8704550B14FF08043D3F8F4
:100478000024D20744BF6FF00102C3F8002482E7CA
:100488000D480E4CC0F88C4602F54052FB20C2F8CD
:100498001805D1F8E42ED3F858420948134664F3F6
:1004A80003034FF40072C1F8E43EC0F84026DCE7CD
:1004B80000ED00E000C0004000500040488103000B
:1004C80000900240704700BF2DE9F04F85B0944678
:1004D800149C019214F0020206460F469846DDE984
:1004E800125BDDF838900F9B9DF84010029204F0E3
:1004F800100000F08980E0B162052FD443BB119B46
:10050800102B00F05981022B00F07F81302389F8ED
:100518000030012204F00305002900F0CE802D23CD
:1005280009F80230531C002D40F066815B4529D341
:1005380062E1202B00F0B180002900F012812D2209
:1005480009F8032065461A46013335E0620505D4EB
:100558009D4200F0DE805B4500F0DB80119A102A96
:1005680004F0030500F0F480022A00F0BE80202B7E
:1005780040F02E81002D40F0B580BBF1200F40F2F5
:10058800B1802023019A9A4614469D1A2246434672
:10059800013439462020B0472B195B45F6D3534622
:1005A8000BF1FF355A1CED1A5A4588BF0025019AF0
:1005B80001321544A3B15A1E09EB02042A440395DB
:1005C8009144A4EB030A1D46A9EB040214F801099F
:1005D80043463946B047A245F6D12B46039D1D44F4
:1005E800029B6BB1019BEC1A5C4509D22A46434633
:1005F800394620200134B0475C4505F10105F5D3A3
:10060800284605B0BDE8F08FBBF1000F14D014F0F8
:10061800010E45D0002900F0AD80AB420BF1FF3B45
:100628000FD39B451FD800287FF466AF202B86D1B7
:10063800019D1F222023BFE7AB4238BF04F0010E03
:100648005CD25A1E4A444FF0300C04E001339D42FC
:1006580002F801CF01D9202BF8D1BEF1000F67D0E5
:100668005B4580F0EC805A1E4A444FF0300C04E0A1
:1006780001335B4502F801CF63D0202BF8D1002865
:100688007FF464AF04F00305002DD1D1BBF1200F36
:100698003FF677AFCCE7202B09D165461F228BE7C1
:1006A800AB42CED300287FF427AF202BEED01A46DA
:1006B80004F0030500297FF432AF63076FD52B23BD
:1006C80009F80230531C002D40F096809B453FF6F8
:1006D80059AF91E0202B40F093801DB9BBF1200F5A
:1006E8003FF650AF019D1F2266E7202B3FF442AF33
:1006F8009C460133622209F80C2038E70028CAD04A
:1007080060053FF52BAF002B3FF4F9AEAB427FF409
:1007180025AFB3F1010C3FF4F2AE119A102A7FD045
:10072800022A00F085801A4604F00305634650E06B
:1007380000287FF40BAF1A4604F00305202AA3D043
:10074800EAE600287FF4D8AE5A4604F00305F5E738
:10075800A206BFD5202BC0D0582209F803200133A8
:1007680005E761073AD42407654650D4002B7FF487
:1007780022AF37E714F00C0F01D00BF1FF3BAB426F
:10078800FFF45FAF5B45FFF46EAF00287FF4B4AEB3
:10079800202B3FF44DAF1A4604F003058DE72007E0
:1007A80023D4D5BB934588BF13463FF6EBAE002A4A
:1007B8004CD01346013A1FE0A0061FD4782389F8CD
:1007C8000030302389F80130022204F00305A3E643
:1007D8005A1C4FF0300C09F803C0AFE72B2209F878
:1007E800032065461A460133E6E6202309F802305D
:1007F800531C002D3FF46AAF019DDDE65823DEE768
:10080800782209F803200133B1E66223D7E72022D2
:1008180009F803201A460133CEE6019D1346C9E6BE
:10082800A506A3F1020206D5582509F802507AE771
:1008380004F003055EE7782509F8025073E70028FD
:100848007FF484AE202B3FF44DAF30E7019DD7E60F
:1008580000B9704700F0EEBE2DE9F04F9DB0984604
:100868000B1E0893269B0A9318BF8346A44B98F83F
:100878000000924608BF9B46002800F020834FF0F6
:10088800000909920AE04A46099B089909F10109F9
:10089800D84798F80000002800F08E80252808F135
:1008A8000108F0D10024434613F8010BA0F12002FF
:1008B800102A0AD8DFE802F04009093C09090909A9
:1008C80009090938093409093000A0F13002092A58
:1008D80040F2B3802A2800F0D58000220B922E28FF
:1008E80000F0C0800026A0F16802122A2DD8DFE8A7
:1008F80012F030012C002A012C001E012C002C00C3
:100908002C002C002C002C002C0027002C002C0084
:100918002C002C002C00270044F001049846C2E764
:1009280044F002049846BEE744F004049846BAE747
:1009380044F010049846B6E744F008049846B2E735
:1009480098F8010044F4807401336628984643D827
:10095800452826D9A0F14603202B22D8DFE813F03A
:100968000201210021002100210021002100210095
:100978002100210021002100210021002100210067
:100988002100210044022100210021002100210032
:1009980021002100210021004402DD014402210040
:1009A80002014A46099B0899D84798F8000009F1BE
:1009B800010900287FF472AFDDF824A04C46CA452F
:1009C80001D80AF1FF39089953464A460020D8470A
:1009D80020461DB0BDE8F08FA0F16903DBB20F2BF4
:1009E800DFD801229A4049F241010A4040F0B38120
:1009F8000A2B58D0072BD4D10A9D55F8043B002B5D
:100A080000F0D48144F0210714A912910C4603E0A8
:100A1800202A00F0D5810B4603F00F01092908466A
:100A28008CBF00F1370130310F2B04F8011B02F1A4
:100A380001024FEA1311EBD8C2E1002200E00133B2
:100A480002EB820200EB42021878A0F1300109297A
:100A58009846A2F13002F2D92E280B9203F1010335
:100A68007FF440AF98F80100A0F13001092944F45F
:100A780080641A4640F27D812A2800F08A819846CF
:100A880001332FE70A9A98F8010052F8045B0A929A
:100A9800002DB8BF69429846BABF44F002040B91D2
:100AA8000B9501331BE7DDF828C05CF8047B387828
:100AB800002E14BF31464FF0FF31002800F0198591
:100AC80039443B4604E013F8012F002A00F0ED8179
:100AD8009942F8D1A1EB070A650540F1D081B245EA
:100AE80028BFB24614F0020400F068840224CDF84E
:100AF80048A04E44DDE9085A4A46CDF828C008E027
:100B0800CD040000D84717F8010F09F101094A463A
:100B180018B14E4553462946F4D1DDF828C0DDF812
:100B280048A0002C40F02582CDF828C0B1E698F8FE
:100B380001006C287FF406AF98F8020044F4407472
:100B480008F1030301E798F8010044F40074013345
:100B5800FBE698F80100682800F0AA8144F08004B8
:100B68000133F2E60A9B073323F00703B3EC027B59
:100B780051EC170B0A9302460B468DED0C7B01F0E6
:100B88004BFA002800F0B281DDE90C0100220023B5
:100B980001F04CFA002840F06381139014F4806F40
:100BA80014AB08BF062612931A46A6F1200A33464C
:100BB800302105E0013B534502F8011B00F0EE81AE
:100BC800092BF7D8F61A9A46DDE90C0101F056FA16
:100BD800BF4B03EBCA0393ED007B07468DED0E7BFD
:100BE80001F05AF902460B46DDE90C0101F006F85E
:100BF800DDE90E2300F0D4FE02460B46CDE91023B2
:100C080001F064FA054601F037F902460B46DDE9C2
:100C1800100100F0F3FF02460B46CDE91023AD4B5F
:100C2800002201F021FA002800F077812B460133D9
:100C380018461D4601F020F902460B46DDE90E0173
:100C480001F0FEF910B1002301371D469EA3D3E938
:100C58000023DDE90C0101F007FA002840F0F181DA
:100C6800BAF1000F00F0F381129BDFF870C2701E1A
:100C780018440EE0ACFB0521C90801EB8102A5EB85
:100C880042023032092D00F8012F40F24D820D4604
:100C98001E46202E06F101030AF1FF3AEAD120266A
:100CA800129B8D48711E194407E001F8017F731CDF
:100CB8001746002A00F0DF811E4680FB0723FA173B
:100CC800C2EBA30202EB8203A7EB4307202E07F136
:100CD8003007EAD104F00302012A40F013840B9B89
:100CE800002B00F0BF82139A002A00F02384013BF6
:100CF800202B0B9340F2B682129A0B99731E134461
:100D0800302205E001368E4203F8012F00F0AA8355
:100D1800202EF7D11F23CA46DCE10A9BA20709F15E
:100D2800010603F1040740F1088118780899099B26
:100D38004A46D8470B9B012B40F29D82DDE90845C6
:100D4800994432462B46013621462020D8474E4545
:100D5800F7D10A979DE56F2800F08D8040F2248333
:100D6800782800F05D824FF00A0A24F01004D44677
:100D780042E0002606EB860600EB4600A0F13006AE
:100D880012F8010FA0F13003092BF3D99046531C38
:100D9800A9E50A9B98F8020053F8046B0A9308F136
:100DA800020826EAE67608F101039CE524F010071C
:100DB80014F4806347F021073FF426AE14AB129376
:100DC800129B00930823059310200023CDE90230DD
:100DD8000192DDE908134A46069704965846FFF73C
:100DE80073FB0A95814654E5582879D0622840F06B
:100DF800D7804FF0020AD44614F4806500F02481AD
:100E080024F00D0313F400700A9A40F0398213F4A9
:100E1800807102F1040440F016835F0640F11282EB
:100E28001278002A40F04D8223F01003002D00F0C4
:100E38004882114614AA129206930B9BCDF80CC057
:100E4800CDE904630191129B009300234A46029363
:100E58005846DDE90813FFF737FB0A94814618E581
:100E6800DDE90C230020002100F0C8FE0123CDE9B4
:100E78000C01139392E64FF0080AD446BCE714F02D
:100E8800020400F043820224DDE90856CDF828C0A8
:100E98004A4633462946D84717F8010F09F1010990
:100EA8000028F5D1DDF828C03BE6A3EB070A13E6D6
:100EB80098F8020044F0C00408F1030345E504462D
:100EC80081467CE5AFF300800000C0FFFFFFDF41F3
:100ED800000200000000E03F67666666CDCCCCCC1F
:100EE8004FF0100A44F02004D44685E7099E089D77
:100EF80033464A4629466E20D84709F1020433464C
:100F080009F1010229466120D8472246334629467D
:100F18006E2009F10309D847BBE4DDE91001C24B93
:100F2800002201F083F800287FF490AE002D40F0F5
:100F380095812B4601331D4688E60B9B012B40F219
:100F48009481DDE9085A09F1FF361E444C462246D1
:100F58005346013429462020D847B442F7D10B9B89
:100F680099440A9B22461878DDE90813D8470A975E
:100F78008FE44C460B9B53457FF6D6ADDDE908560A
:100F88004B44A3EB0A0967462246334601342946F7
:100F98002020D8474C45F7D1BC46C5E5202613E6A6
:100FA80014F4806300F0448124F011014FF480634D
:100FB80011F400740A9A40F0CE8011F4807002F1A6
:100FC800040A40F0C9814D0600F127810C0640F162
:100FD8008A82B2F9004084EAE477A7EBE477BFB2EB
:100FE800E20F002C00F0F4813B4614ACDFF83CC261
:100FF800129401E0202810D0ACFB0375ED0805EB36
:101008008507A3EB47079E463037BEF1090F04F862
:10101800017B00F101002B46ECD80B9B0691CDE932
:101028000463CDE90102129B00930A234A46039305
:101038005846DDE90813FFF747FACDF828A081469E
:1010480027E44FF0000924E424F00C03DAE63846DC
:1010580000F022FF02460B46DDE90C0100F0CEFD50
:10106800714B002200F0E2FF00287FF419AE01372F
:1010780027F0010714E604F00302012A00F0968223
:10108800202B00F090821399002940F0D480650746
:1010980040F11E820DEB03012B20023681F850002F
:1010A800002A7FF438AE0B9AB2427FF634AE0C9425
:1010B800DDE9084502EB090AAAEB060A4F460E933A
:1010C8003A462B46013721462020D8475745F7D1C5
:1010D8000C9C0E9B129F1294DDE9084501331F44B6
:1010E8005644524617F8010D0AF1010A2B462146CB
:1010F800D847B245F5D1129CA10740F1BE800B9D9F
:10110800AAEB0904A542D1467FF6C3ABDDE908671F
:101118004A463B46314620200134D847A54209F1CA
:101128000109F5D8FFF7B5BB202B3FF4B8AD129AEB
:101138009A441644302205E00133202B06F8012F8B
:101148003FF4ADAD5345F7D10DEB03025E1C2E23E2
:1011580082F85030A4E5073222F0070210465268A0
:1011680050F8084B0A9054EA02074FEAD2706ED141
:10117800002B40F0C9811A4614AC25461294AE469D
:101188002A4C0C914FF0000A0E9002E0BAF1200FA1
:101198002ED0991841F10001A4FB010525F00300A8
:1011A80000EB9500091A581A9C46174662F100038D
:1011B8004FF0CC3202FB00F204FB0322A0FB043008
:1011C800024403F001050520A5FB00054018BCF109
:1011D8000A0F4FEA530300F1300077F1000743EAA2
:1011E800C2730EF8010B0AF1010A4FEA5202CDD27E
:1011F8000C990E980B9B0691CDE90463CDE901A0EB
:10120800129B00930A234A460393DDE908135846C4
:10121800FFF75AF98146FFF73CBB14782746DFE60B
:101228004FF0100AD446E7E50000E03FCDCCCCCC27
:1012380024F01001BCE60DEB03012D20023681F8E5
:1012480050002DE71F064CBF12881268E9E5002AF6
:10125800234691DA634262EB42028DE7E9077FF5A4
:10126800F5AC66E6CA461F2334E70A9B4A46187857
:10127800DDE90813D847B1466BE5D146FFF709BB4E
:10128800073222F00702546852F8081B0A9251EA02
:101298000402084640F0A28023F01003002D00F05D
:1012A8009D8014AA0027129206930B9BCDF80CC0C0
:1012B800CDE90463129B0093002301974A460293E9
:1012C800A3E713F0200F14BF41206120A0F10A0EFC
:1012D80014A81290074603E020293FF4ADAD2A4632
:1012E800B2FBFCF50CFB152A5FFA8AF0BAF1090F7C
:1012F80000F1300A8ABF70445FFA8AF0C0B26245D2
:1013080007F8010B01F10101E6D295E50B9B534566
:1013180040F240810B9B1296DDE908564B440A9730
:10132800A3EB0A0A67464A46334609F101092946EA
:101338002020D847D145F6D1BC460A9F0B9B387868
:10134800129E03F1010A00283FF4EEAB002C3FF493
:101358009BAD0024FFF7CBBB1068C20F002800F03C
:10136800BC8080EAE073A3EBE07314A8DFF894C2B2
:10137800129001E0202C10D0ACFB0375ED0805EBB2
:101388008507A3EB47079E463037BEF1090F00F8E3
:10139800017B04F101042B46ECD80B9B0691CDE9A7
:1013A8000463CDE901423EE6692824F0100140F0CB
:1013B800B08014F480633FF4FBADF5E50B9B534517
:1013C80098BF0AF1010A7FF692AB4FF48064A1E757
:1013D800002B3FF40AAE14AB12931EE613F0200F55
:1013E80014BF41226122A2F10A0114AA0E96CDF877
:1013F8004090129200270C93CDF84CC01646054633
:10140800894603E0202F17D005460C462146524650
:101418000023284600F07AFED2B2092A02F13003EE
:1014280088BF02EB09035545DBB274F1000406F8E6
:10143800013B07F10107E5D20C9B0E9EDDF84090B9
:10144800DDF84CC030E71268E2B923F01003CDB1E3
:1014580014AA129206930B9BCDF80CC0CDE9046335
:101468000190F0E4202E3FF455AC139B002B79D06B
:1014780001362D220B990DEB0103CA4683F8502043
:101488000B4627E613F0200F14BF41216121A1F17B
:101498000A0E14A912910F4602E02028DAD02A4633
:1014A800B2FBFCF50CFB152A5FFA8AF1BAF1090FB9
:1014B80001F1300A8ABF71445FFA8AF1C9B2624504
:1014C80007F8011B00F10100E7D2C3E70B9B0122DB
:1014D800200727D41E46013BE2E5002B3FF445AF29
:1014E80014AB129359E7146884EAE477A7EBE4771E
:1014F80076E514F4806A3AD014F0020A4DD0824698
:101508004C4637E51F23CBE514AB4FF0000A129386
:1015180070E64FF00A0A0C46D4466DE4220736D529
:10152800334601220DEB0301202081F850005E1C98
:10153800B6E51E4614F00C0F0B9B22D0013B9E42D1
:101548000B93FFF4D9AB202E3FF48CAE6307E5D59F
:1015580006F170036B442B2203F8202CCA4633464D
:101568000136B7E56307B1D501362B2282E714F0BF
:1015780002047FF4FEAC0B9B002B7FF4CBAEFFF78D
:10158800D3BA9E42FFF4B8AB202E3FF46BAE731E65
:10159800CA469FE50AF1010A76E40B9B002B7FF40B
:1015A80014AFFFF7C1BA1E461F2379E50B99A1B105
:1015B800139A002ABDD04A1E9A420B9288BF1E4633
:1015C8003FF69AAB202B19D003F170026A442D2103
:1015D800023602F8201CCA467CE5202B0ED013994F
:1015E8000029F1D167077FF573AF03F170026A44F0
:1015F8002B21023602F8201CCA466BE51E46CA4655
:101608001F2367E5CDCCCCCC0FB410B584B006ACA5
:101618004FF0FF3254F8043B009402A904480394A5
:10162800FFF71AF904B0BDE8104004B0704700BFD6
:1016380059080000094A04210123C2F80015C2F81C
:101648001C059360D2F81C31002BFBD0002301212C
:10165800C2F81C31D160C2F8003570470020004044
:101668000F49104A104B00F010F81049104A114B5E
:1016780000F00BF81049114A114B00F006F8114917
:10168800114A124B00F001F806E0521A03DD043A41
:1016980098588850FBDC7047FEF76EFEFEF732FE66
:1016A80000000020040000204C2700000400002057
:1016B800040000205027000004000020040000203F
:1016C80050270000040000200400002050270000DC
:1016D800FEE7FEE7FEE7FEE7FEE7FEE7FEE7FEE7DA
:1016E800FEE7FEE75548564B2DE9F04100214FF043
:1016F800A042544D544C4FF0060CC0F80CC540267F
:10170800C0F82455C0F86C1503250820C2F81857EE
:10171800C2F80865C3F80415C3F80815C3F810051E
:101728004FF48033C4F80415C4F80815C4F810053C
:10173800C4F80433454B4FF400771F60444B4548C9
:10174800012647F61228E660C4F8408526601B2467
:10175800C3F808451A24C3F80C454FF08064C3F851
:10176800244540F20C6E4FF4F034C2F86CE7C2F82E
:1017780068E7C2F83457C2F83857C2F83C57C2F87D
:101788004057C2F808452A2202701D224170C3F84A
:1017980000C5C3F80072C3F888250222C3F848259B
:1017A800C3F84405C3F80411C3F824119E60D3F8A4
:1017B8000421012AFBD100240E21C3F80045017041
:1017C80006214470C3F800154FF40071C3F80012E5
:1017D8001D21C3F888150221C3F848151C49C3F810
:1017E8004405C3F80441C3F824419A60D1F8043190
:1017F800012BFBD100242A22C1F8004502700622E1
:101808004370C1F800254FF40072C1F800221D2270
:10181800C1F888250222C1F848250D4AC1F84405B7
:10182800C1F80441C1F824418B60D2F80431012B7E
:10183800FBD10023C2F8003530BFFDE7002000408F
:101848000080004000E0D7010090004000E100E087
:1018580000300040200000204C4AD2F84031DB071D
:101868007ED52DE9F0474A4B4A4D4B48002482B0BB
:101878000121C2F840414FF4845606222970C3F86A
:101888000025C3F800621D26C3F88865C3F848150B
:10189800C3F84455C3F83825C3F83405C3F80441E0
:1018A800C3F824419960D3F80421012AFBD100220E
:1018B800C3F80025037845782D0945EA0315837890
:1018C800C678360946EA0316037944793348B5F5EC
:1018D800006F4FEA141444EA0314A8BFA5F5805515
:1018E8004FF0A04AB6F5006FA8BFA6F580564FF492
:1018F800F033B4F5006FA8BFA4F58054CAF80835D2
:101908000023009385EAE57786EAE67884EAE473BB
:10191800A3EBE473A7EBE577A8EBE6783FB20FFA01
:1019280088F80FFA83F9324623462946FFF76CFEFA
:10193800474516DD4F4520DC002C4FF0A043CCBFB7
:101948004FF490324FF44042C3F80C250F4B01215D
:1019580047F61222D960C3F8402502B0BDE8F087E7
:101968007047E9DAC845E7DD002ECCBF4FF42043C5
:101978004FF4A033CAF80C35E8E7002DCCBF4FF47C
:10198800C0434FF4C033CAF80C35DFE7009000407D
:1019980000300040200000206000002050020000BD
:1019A80070B54FF0FF0C4CF4E06C1CEA11541DBFED
:1019B8001CEA135594EA0C0F95EA0C0F00F0DEF8B8
:1019C8002C4481EA030621EA4C5123EA4C5350EA9D
:1019D800013518BF52EA033541F4801143F48013EE
:1019E80038D0A0FB02CE4FF00005E1FB02E506F07F
:1019F8000042E0FB03E54FF00006E1FB03569CF0D4
:101A0800000F18BF4EF0010EA4F1FF04B6F5007FD9
:101A180064F5407404D25FEA4E0E6D4146EB06064B
:101A280042EAC62141EA55514FEAC52040EA5E50D4
:101A38004FEACE2EB4F1FD0C88BFBCF5E06F1ED87E
:101A4800BEF1004F08BF5FEA500E50F1000041EBB5
:101A5800045170BD06F0004646EA010140EA020062
:101A680081EA0301B4EB5C04C2BFD4EB0C0541EA84
:101A7800045170BD41F480114FF0000E013C00F399
:101A8800AB8014F1360FDEBF002001F0004170BDBD
:101A9800C4F10004203C35DA0C341BDC04F11404D6
:101AA800C4F1200500FA05F320FA04F001FA05F262
:101AB80040EA020001F0004221F0004110EBD3702F
:101AC80021FA04F642EB06015EEA430E08BF20EA5B
:101AD800D37070BDC4F10C04C4F1200500FA04F3FE
:101AE80020FA05F001FA04F240EA020001F0004190
:101AF80010EBD37041F100015EEA430E08BF20EA03
:101B0800D37070BDC4F1200500FA05F24EEA020E4A
:101B180020FA04F301FA05F243EA020321FA04F079
:101B280001F0004121FA04F220EA020000EBD37030
:101B38005EEA430E08BF20EAD37070BD94F0000F30
:101B48000FD101F00046400041EB010111F4801F64
:101B580008BF013CF7D041EA060195F0000F18BF15
:101B6800704703F00046520043EB030313F4801F51
:101B780008BF013DF7D043EA0603704794EA0C0F0B
:101B88000CEA135518BF95EA0C0F0CD050EA410621
:101B980018BF52EA4306D1D181EA030101F000419E
:101BA8004FF0000070BD50EA410606BF10461946C6
:101BB80052EA430619D094EA0C0F02D150EA0136D2
:101BC80013D195EA0C0F05D152EA03361CBF104613
:101BD80019460AD181EA030101F0004141F0FE41B2
:101BE80041F470014FF0000070BD41F0FE4141F436
:101BF800780170BD81F0004102E000BF83F000432E
:101C080030B54FEA41044FEA430594EA050F08BF8F
:101C180090EA020F1FBF54EA000C55EA020C7FEA53
:101C2800645C7FEA655C00F0E2804FEA5454D4EBD0
:101C38005555B8BF6D420CDD2C4480EA020281EA9A
:101C4800030382EA000083EA010180EA020281EAD2
:101C58000303362D88BF30BD11F0004F4FEA013124
:101C68004FF4801C4CEA113102D0404261EB410133
:101C780013F0004F4FEA03334CEA133302D05242B9
:101C880063EB430394EA050F00F0A780A4F1010475
:101C9800D5F1200E0DDB02FA0EFC22FA05F28018AF
:101CA80041F1000103FA0EF2801843FA05F3594195
:101CB8000EE0A5F120050EF1200E012A03FA0EFC14
:101CC80028BF4CF0020C43FA05F3C01851EBE3713E
:101CD80001F0004507D54FF0000EDCF1000C7EEB5B
:101CE80000006EEB0101B1F5801F1BD3B1F5001F99
:101CF8000CD349085FEA30004FEA3C0C04F10104B8
:101D08004FEA445212F5800F80F09A80BCF1004FE0
:101D180008BF5FEA500C50F1000041EB045141EA62
:101D2800050130BD5FEA4C0C404141EB0101013C2B
:101D380028BFB1F5801FE9D291F0000F04BF01461A
:101D48000020B1FA81F308BF2033A3F10B03B3F1EC
:101D580020020CDA0C3208DD02F1140CC2F10C027C
:101D680001FA0CF021FA02F10CE002F11402D8BFDA
:101D7800C2F1200C01FA02F120FA0CFCDCBF41EAA6
:101D88000C019040E41AA2BF01EB0451294330BD75
:101D98006FEA04041F3C1CDA0C340EDC04F1140452
:101DA800C4F1200220FA04F001FA02F340EA030029
:101DB80021FA04F345EA030130BDC4F10C04C4F16F
:101DC800200220FA02F001FA04F340EA030029464F
:101DD80030BD21FA04F0294630BD94F0000F83F499
:101DE800801306BF81F480110134013D4EE77FEA7C
:101DF800645C18BF7FEA655C29D094EA050F08BFC8
:101E080090EA020F05D054EA000C04BF19461046A8
:101E180030BD91EA030F1EBF0021002030BD5FEAEC
:101E2800545C05D14000494128BF41F0004130BD14
:101E380014F580043CBF01F5801130BD01F0004568
:101E480045F0FE4141F470014FF0000030BD7FEADB
:101E5800645C1ABF194610467FEA655C1CBF0B46D6
:101E6800024650EA013406BF52EA033591EA030FED
:101E780041F4002130BD00BF90F0000F04BF0021E5
:101E8800704730B54FF4806404F132044FF0000518
:101E98004FF0000150E700BF90F0000F04BF002191
:101EA800704730B54FF4806404F1320410F00045F7
:101EB80048BF40424FF000013EE700BF42004FEAF2
:101EC800E2014FEA31014FEA02701FBF12F07F436F
:101ED80093F07F4F81F06051704732F07F4208BF26
:101EE800704793F07F4F04BF41F40021704730B52D
:101EF8004FF4607401F0004521F000411CE700BF79
:101F080050EA010208BF704730B54FF000050AE0FB
:101F180050EA010208BF704730B511F0004502D5FC
:101F2800404261EB41014FF4806404F132045FEAFE
:101F3800915C3FF4D8AE4FF003025FEADC0C18BFA7
:101F480003325FEADC0C18BF033202EBDC02C2F199
:101F5800200300FA03FC20FA02F001FA03FE40EA2B
:101F68000E0021FA02F11444BDE600BF4FF0FF3C19
:101F780006E000BF4FF0010C02E000BF4FF0010C7B
:101F88004DF804CD4FEA410C7FEA6C5C4FEA430CF4
:101F980018BF7FEA6C5C1BD001B050EA410C0CBF43
:101FA80052EA430C91EA030F02BF90EA020F0020A5
:101FB800704710F1000F91EA030F58BF994208BF0C
:101FC80090422CBFD8176FEAE37040F001007047C9
:101FD8004FEA410C7FEA6C5C02D150EA013C07D120
:101FE8004FEA430C7FEA6C5CD6D152EA033CD3D06B
:101FF8005DF8040B704700BF8446104662468C4665
:102008001946634600E000BF01B5FFF7B7FF002897
:1020180048BF10F1000F01BD4DF808EDFFF7F4FFC0
:102028000CBF012000205DF808FB00BF4DF808ED4B
:10203800FFF7EAFF34BF012000205DF808FB00BF6E
:102048004DF808EDFFF7E0FF94BF012000205DF890
:1020580008FB00BF4DF808EDFFF7CEFF94BF012045
:1020680000205DF808FB00BF4DF808EDFFF7C4FF3E
:1020780034BF012000205DF808FB00BF4FEA410291
:1020880012F5001215D211D56FF47873B3EB6252C2
:1020980012D94FEAC12343F0004343EA505311F0E9
:1020A800004F23FA02F018BF404270474FF000007B
:1020B800704750EA013005D111F0004008BF6FF0B9
:1020C800004070474FF00000704700BF4A0011D22F
:1020D80012F5001211D20DD56FF47873B3EB62527A
:1020E8000ED44FEAC12343F0004343EA505323FA86
:1020F80002F070474FF00000704750EA013002D1FB
:102108004FF0FF3070474FF00000704753B94AB99D
:10211800002908BF00281CBF4FF0FF314FF0FF30E7
:1021280000F088B9ADF1080C6DE904CE00F006F8AE
:10213800DDF804E0DDE9022304B070472DE9F0473B
:10214800089D0F4604468C46002B48D18A42164605
:1021580061D9B2FA82F34BB1C3F1200201FA03FC50
:1021680020FA02F29E4042EA0C0C9C404FEA164EBE
:10217800B7B2BCFBFEF1220C0EFB11CC42EA0C42BA
:1021880001FB07F0904209D9B21801F1FF3C80F039
:10219800EE80904240F2EB8002393244121AA4B227
:1021A800B2FBFEF00EFB102244EA024400FB07F7E4
:1021B800A74209D9341900F1FF3280F0DA80A7422A
:1021C80040F2D7803444023840EA0140E41B002141
:1021D8001DB1DC400023C5E90043BDE8F0878B4210
:1021E80006D90DB1C5E9000100210846BDE8F08710
:1021F800B3FA83F1002948D1BB4202D3824200F2EC
:102208000781841A67EB030201209446002DE4D06D
:10221800C5E9004CE1E7002A00F09280B2FA82F3A7
:10222800002B40F0A8808A1A4FEA164E1FFA86FC47
:102238000121200CB2FBFEF70EFB172240EA0242F6
:102248000CFB07F0904207D9B21807F1FF3802D209
:10225800904200F2E2804746121AA4B2B2FBFEF0A6
:102268000EFB102244EA02440CFB00FCA44507D9EB
:10227800341900F1FF3202D2A44500F2CB80104697
:10228800A4EB0C0440EA0740A2E7C1F120068B400A
:1022980022FA06FC4CEA030C07FA01F420FA06F3CA
:1022A800F7404FEA1C49234300FA01F81FFA8CFE55
:1022B800B7FBF9F01C0C09FB107744EA074400FB54
:1022C8000EF7A74202FA01F20AD91CEB040400F146
:1022D800FF3A80F09B80A74240F29880023864441D
:1022E800E41B9FB2B4FBF9F309FB134447EA044427
:1022F80003FB0EFEA64509D91CEB040403F1FF37C6
:1023080080F08280A6457FD9023B644443EA0040BE
:10231800A4EB0E04A0FB02E7BC427346B94663D3A4
:1023280060D05DB1B8EB030264EB090404FA06F669
:1023380022FA01F31E43CC40C5E9006400214CE7B2
:102348006208480842EAC1710B0C43EA00438AB2AA
:1023580042EA0342B3FBF6F1E407B4463746B64611
:102368001F23B0FBF6F0D21B41EA004161E761464A
:1023780014E7104628E7C3F1200120FA01F29E4035
:1023880027FA01F19F403A434FEA164E1FFA86FC9E
:10239800B1FBFEF70EFB1710110C41EA004107FBD9
:1023A8000CF8884504FA03F43AD9711807F1FF309C
:1023B80001D288451FD8A1EB0801B1FBFEF808FB44
:1023C8000CF70EFB181192B242EA0142BA422FD220
:1023D800B21808F1FF31C6D2BA42C4D2A8F102013C
:1023E8003244C0E7F0459CD2BEEB020367EB0C0712
:1023F8000138B94695E7A6EB08084144B81EB1FB79
:10240800FEF808FB0CF7DCE73B467FE7504667E73A
:102418000846FBE63444023832E7023F32441BE701
:10242800A1EB08013846B1FBFEF808FB0CF7C8E73A
:10243800414698E7704700BF08B50021044600F000
:102448008DF8034B1B6803B19847204600F040F90C
:10245800A0000020830730B546D08418844604E0E5
:1024680003F8011B9D0704D09C46A4456346F7D199
:1024780030BD013A0244A2EB0C02032A29D9CCB29E
:1024880004EB04240F2A04EB04442FD9A2F1100C06
:102498002CF00F0C03F11005AC44C3E90044C3E968
:1024A800024410336345F8D112F00C0F02F00F0EFE
:1024B80018D02EF0030C9C44AEF104051A4642F8DD
:1024C800044B6245FBD125F0030404330EF00302EC
:1024D8002344002ACCD0C9B21A4403F8011B934202
:1024E800FBD130BD7246F4E70346C6E79646E0E7FF
:1024F80070B50F4B0F4DAB42A3EB050607D0B610D6
:10250800002455F8043B01349847A642F9D800F056
:10251800E1F8094D094B5E1BAB424FEAA60606D00F
:10252800002455F8043B01349847A642F9D870BDF9
:10253800E8260000E8260000E8260000F026000053
:10254800704700BF704700BF024B13B1024800F04C
:1025580065B8704700000000312600002DE9F04FF3
:102568002C4B2D4F83B082461868CDF804A08B46BB
:10257800FFF7E6FF3E68AEB14FF000094FF00108E3
:102588007468651E0ED4013406EB8404BBF1000F99
:102598000FD0D4F800315B450BD0013D6A1CA4F183
:1025A8000404F6D11B4B186803B0BDE8F04FFFF7E1
:1025B800C9BF73682268013BAB420CBF7560C4F8A1
:1025C800009072B1D6F88811D6F804A008FA05F37D
:1025D8000B420CD1904773683A68534513D1B24205
:1025E80011D1013D6B1CA4F10404CFD1DAE7D6F870
:1025F8008C01D4F88010034209D101989047736880
:102608003A685345EBD0002ACCD01646B8E70846BE
:102618009047E0E700000020A800002000230146C2
:102628001A46184600F014B838B5074D074C2C1B4D
:10263800A41005D0013C55F8043D9847002CF9D169
:10264800BDE8384000F050B800270000FC26000024
:102658002DE9F8431B4D0646286898460F469146D3
:10266800FFF76EFF184B1C681CB3286865681F2DA0
:1026780022DC4EB96B1C0235636044F82570FFF705
:1026880061FF0020BDE8F88304EB85010123C1F850
:102698008890D4F88821AB401A43022EC4F88821C8
:1026A800C1F80881E6D1D4F88C211A43C4F88C21EA
:1026B800E0E7064C1C60D8E7FFF744FF4FF0FF3017
:1026C800E0E700BF00000020A8000020AC000020C8
:1026D800FEE700BFF8B500BFF8BC08BC9E467047CF
:1026E80051250000E1020000F8B500BFF8BC08BCA5
:0C26F8009E467047B90200000000000080
:102704004C270000000000200100000050270000BA
:1027140004000020000000005027000004000020F6
:10272400000000005027000004000020000000000A
:10273400040000208E0000003C0200200000000085
:082744003C020020000000002F
:04274C00A4000020C5
:04000003000016697A
:00000001FF
