:10000000000004205D040000CD040000CF040000C7
:10001000D1040000D3040000D5040000000000005B
:10002000000000000000000000000000D7040000F5
:10003000D904000000000000DB040000DD04000023
:10004000DF040000DF040000DF040000DF04000024
:10005000DF040000DF040000DF040000DF04000014
:10006000DF040000DF040000DF040000DF04000004
:10007000DF040000DF040000DF040000DF040000F4
:10008000DF040000DF040000DF040000DF040000E4
:10009000DF040000DF040000DF040000DF040000D4
:1000A000DF040000DF040000DF040000DF040000C4
:1000B000DF040000DF04000000000000000000007A
:1000C000DF040000DF040000DF040000DF040000A4
:1000D000DF040000DF040000DF040000DF04000094
:1000E000DF040000DF040000DF0400000000000067
:1000F00000000000DF04000000000000DF0400003A
:1001000000000000000000000000000000000000EF
:1001100000000000000000000000000000000000DF
:1001200000000000000000000000000000000000CF
:1001300000000000000000000000000000000000BF
:1001400000000000000000000000000000000000AF
:10015000000000000000000000000000000000009F
:10016000000000000000000000000000000000008F
:10017000000000000000000000000000000000007F
:10018000000000000000000000000000000000006F
:10019000000000000000000000000000000000005F
:1001A000000000000000000000000000000000004F
:1001B000000000000000000000000000000000003F
:1001C000000000000000000000000000000000002F
:1001D000000000000000000000000000000000001F
:1001E000000000000000000000000000000000000F
:1001F00000000000000000000000000000000000FF
:08020000940000000100000061
:100208000348044B834202D0034B03B1184770479D
:100218000400002004000020000000000548064BF0
:100228001B1AD90F01EBA301491002D0034B03B1EC
:100238001847704704000020040000200000000058
:1002480010B5064C237843B9FFF7DAFF044B13B116
:100258000448AFF300800123237010BD0400002080
:10026800000000009008000008B5054B1BB10549C7
:100278000548AFF30080BDE80840FFF7CFBF00BFD7
:10028800000000000800002090080000A3F5803A54
:10029800704700BF174B002B08BF134B9D46FFF755
:1002A800F5FF00218B460F461348144A121A00F036
:1002B80099F90E4B002B00D098470D4B002B00D01E
:1002C80098470020002104000D000D48002802D0A6
:1002D8000C4800F06BFA00F0D3F92000290000F078
:1002E800FBF800F071F900BF0000080000000000F2
:1002F8000000000000000420040000203C02002050
:10030800B5070000C10700004FF0805310B4D3F8C0
:100318003021082A20D04A4AD2F8883043F47003A2
:10032800C2F88830BFF34F8FBFF36F8F4FF0805301
:10033800D3F83021082A02D05DF8044B7047D3F86F
:100348003431042BF8D94FF010224FF08043D2F803
:100358000822C3F85825EFE74FF080410020C1F884
:100368000C01384AC1F81001C1F83805D3F8040463
:10037800C2F82005D3F80804C2F82405D3F80C0401
:10038800C2F82805D3F81004C2F82C05D3F81404D1
:10039800C2F83005D3F81804C2F83405D3F81C04A1
:1003A800C2F84005D3F82004C2F84405D3F8240461
:1003B800C2F84805D3F82804C2F84C05D3F82C0431
:1003C800C2F85005D3F83004C2F85405D3F8340401
:1003D800C2F86005D3F83804C2F86405D3F83C04C1
:1003E800C2F86805D3F84004C2F86C05D3F83401A4
:1003F800D3F84444C2F8704550B14FF08043D3F865
:100408000024D20744BF6FF00102C3F8002482E73A
:100418000D480E4CC0F88C4602F54052FB20C2F83D
:100428001805D1F8E42ED3F858420948134664F366
:1004380003034FF40072C1F8E43EC0F84026DCE73D
:1004480000ED00E000C0004000500040488103007B
:10045800009002400F49104A104B00F010F8104964
:10046800104A114B00F00BF81049114A114B00F0DB
:1004780006F81149114A124B00F001F806E0521A29
:1004880003DD043A98588850FBDC7047FFF73CFFBF
:10049800FFF700FF0000002004000020DC08000037
:1004A8000400002004000020E008000004000020F0
:1004B80004000020E00800000400002004000020E0
:1004C800E0080000FEE7FEE7FEE7FEE7FEE7FEE7DE
:1004D800FEE7FEE7FEE7FEE7354A36483649374E7F
:1004E80080B54FF0A04300240627C2F80C75C2F867
:1004F8002405C2F86C450322C3F818274022C3F824
:1005080008250822C1F80445C1F80845C1F8102596
:100518002B4A1B25C2F808551A25C2F80C5540F27B
:100528000C604FF08065C2F82455C3F86C074FF48F
:100538000055C3F868070120C3F83407C3F8085505
:10054800204D4FF00D094FF484584FF01D0E86F8DA
:100558000090C2F80075C2F80082C2F888E5C2F8B7
:100568004805C2F84465C2F83805C2F83455C2F8DF
:100578000441C2F824419060D2F80431012BFBD128
:10058800C2F800452B782A2B05D14FF0A0434FF431
:10059800005CC3F808C5C86047F60B3C08600864EF
:1005A800D1F840359BB26345F9D94860CFE700BF21
:1005B8000020004000E0D70100800040200000201B
:1005C800003000406000002008B50021044600F01B
:1005D8008DF8034B1B6803B19847204600F040F99B
:1005E800A0000020830730B546D08418844604E074
:1005F80003F8011B9D0704D09C46A4456346F7D128
:1006080030BD013A0244A2EB0C02032A29D9CCB22C
:1006180004EB04240F2A04EB04442FD9A2F1100C94
:100628002CF00F0C03F11005AC44C3E90044C3E9F6
:10063800024410336345F8D112F00C0F02F00F0E8C
:1006480018D02EF0030C9C44AEF104051A4642F86B
:10065800044B6245FBD125F0030404330EF003027A
:100668002344002ACCD0C9B21A4403F8011B934290
:10067800FBD130BD7246F4E70346C6E79646E0E78D
:1006880070B50F4B0F4DAB42A3EB050607D0B61064
:10069800002455F8043B01349847A642F9D800F0E5
:1006A800E1F8094D094B5E1BAB424FEAA60606D09E
:1006B800002455F8043B01349847A642F9D870BD88
:1006C800780800007808000078080000800800001A
:1006D800704700BF704700BF024B13B1024800F0DB
:1006E80065B8704700000000C10700002DE9F04F11
:1006F8002C4B2D4F83B082461868CDF804A08B464A
:10070800FFF7E6FF3E68AEB14FF000094FF0010871
:100718007468651E0ED4013406EB8404BBF1000F27
:100728000FD0D4F800315B450BD0013D6A1CA4F111
:100738000404F6D11B4B186803B0BDE8F04FFFF76F
:10074800C9BF73682268013BAB420CBF7560C4F82F
:10075800009072B1D6F88811D6F804A008FA05F30B
:100768000B420CD1904773683A68534513D1B24293
:1007780011D1013D6B1CA4F10404CFD1DAE7D6F8FE
:100788008C01D4F88010034209D10198904773680E
:100798003A685345EBD0002ACCD01646B8E708464D
:1007A8009047E0E700000020A80000200023014651
:1007B8001A46184600F014B838B5074D074C2C1BDC
:1007C800A41005D0013C55F8043D9847002CF9D1F8
:1007D800BDE8384000F050B8900800008C080000D0
:1007E8002DE9F8431B4D0646286898460F46914662
:1007F800FFF76EFF184B1C681CB3286865681F2D2F
:1008080022DC4EB96B1C0235636044F82570FFF793
:1008180061FF0020BDE8F88304EB85010123C1F8DE
:100828008890D4F88821AB401A43022EC4F8882156
:10083800C1F80881E6D1D4F88C211A43C4F88C2178
:10084800E0E7064C1C60D8E7FFF744FF4FF0FF30A5
:10085800E0E700BF00000020A8000020AC00002056
:10086800FEE700BFF8B500BFF8BC08BC9E4670475D
:10087800E106000071020000F8B500BFF8BC08BC32
:0C0888009E46704749020000000000007E
:10089400DC0800000000002001000000E008000067
:1008A4000400002000000000E00800000400002014
:1008B40000000000E0080000040000200000000028
:1008C400040000208E0000003C0200200000000014
:0808D4003C02002000000000BE
:0408DC00A400002054
:040000030000045D98
:00000001FF
